:020000040000FA
:10000000402B0020D5160000BD160000D1160000C0
:1000100000000000000000000000000000000000E0
:10002000000000000000000000000000BD160000FD
:100030000000000000000000BD1600005510000088
:10004000BD160000BD160000BD160000BD16000064
:10005000BD160000BD160000BD160000BD16000054
:10006000BD160000BD160000BD160000BD16000044
:10007000BD160000BD160000BD160000BD16000034
:10008000BD160000BD160000BD160000BD16000024
:10009000BD1600000000000000000000BD160000BA
:1000A000BD160000BD160000BD160000BD16000004
:1000B00000000000F8B5394D00AFAB68002B00D050
:1000C000FEE701F053FC364B1E68364BF218F8235E
:1000D0009B029A4214D8344B344A1968344C354B3D
:1000E000914238D11978344AC90702D42168914223
:1000F00031D0324B22601B68314A2D33FF331360FD
:10010000012400F041FF2F4B1C70BFF35F8F62B6DC
:1001100000F01EFC0A2001F031FC00232A4E33704F
:1001200000F0CCF9294D00280FD02B78DBB2002B42
:100130000AD1A020224A0001136001F01FFC002315
:10014000F356002B00D134702C702B78002BE7D0A5
:1001500001F068F9FCE71B78DB07DB0F0DD000230B
:10016000802223601A4B12055A6180239B011A6872
:1001700082F30888AB603047C2E72168154A914294
:1001800001D12360BCE721680B4B9942E7D0FA20EC
:100190002260400001F020FBE1E7C04600ED00E0F6
:1001A0000420000000E0FFFFB42000007CB0EE87D8
:1001B000FC7F002038040040EF6926F0340B00205B
:1001C000380B0020A4000020D8000020DC00002014
:1001D00000440041EF6916F0202370B5364A0F2025
:1001E000D1690B43D361012234490B7813430B705F
:1001F000334B19788143197006211C7821431970FB
:1002000030490C7822430A701A7802401A70602232
:1002100019780A431A702C4B2C4A5A805A7852B2D9
:10022000002AFBDB01222A4B19780A431A709A78BC
:10023000D207FCD41F2027490A68520B0240824291
:1002400000D105221C8D244D024092012C402243F6
:100250001A850A68920C02401F2A00D1023A1F2414
:10026000188D2240A043024307201A850A68D20D48
:100270000240824200D10322198D02401748120326
:1002800001400A437F211A851A7815480A401A70DE
:10029000042219780A430C211A7058621A898A4379
:1002A0001A811A890B398A431A818022002152004F
:1002B00001F079FB70BDC046000400405844004185
:1002C0003C44004159440041000C004006400000FD
:1002D00000500041246080003FF8FFFFFF8FFFFFC8
:1002E000AC070020F7B51C00314B06005B6A0F001D
:1002F00015000193002C05D1443454432D4BE418D0
:1003000001F0A4FA63782278934210D2D51ABD4244
:1003100000D93D00002E08D0211DC9182A00300048
:1003200001F038FB63785B1963702800FEBD019B08
:10033000A1786A01D318002911D1211D19605968CB
:100340001D48890B890359605968014059601B4950
:10035000551840212879014329710121A1701449C0
:1003600000255118019116495218127AD207DCD58E
:100370005D68A278EDB22570022A04D11968201DAB
:100380002A0001F007FBBD4200D93D00002E0CD031
:100390006570211D2A00300001F0FCFA0122019B4A
:1003A000FF331A720023A370BFE76670F6E7C046FA
:1003B00000500041AC080020FF3F00F00051004118
:1003C000FF50004110B50023FFF78CFF10BDF8B5BA
:1003D00005000C0016001F00002C00D1F8BD210004
:1003E00028003B003200FFF77DFF241A2D18F3E7A9
:1003F000F8B50E001F4955014C6A2C19002B1CD072
:1004000063695B005B08636120616369B2049B0BF5
:10041000920C9B03134363616369174A8021134065
:100420006361164BEA18022313729171134AAD18D7
:100430002A7A1A42FCD03000F8BD012163695B00C2
:100440005B0F03339940B14208D8043A531E9A41D6
:100450006369D2075B005B081343D4E74427574323
:10046000074A0437BF1801003200380001F092FA41
:100470003800C9E700500041FF3F00F0FF50004145
:10048000AC08002010B50023FFF7B2FF10BD00003C
:10049000054B10B51B888B4200D90B0000221900B8
:1004A000FFF7F0FF10BDC046DE00002007B50022B8
:1004B0006B461100D81DFFF7E5FF07BDF0B597B0FB
:1004C00001F0C4F90823C44CC449A28B1A4002921B
:1004D0002FD011224020A3837833A372C0244A7006
:1004E00088714B71BE4BBF4D5A68A4052A40224308
:1004F0005A605A692A401443BB4A5C611A60BB4A7D
:10050000BB4C1A615A6814408022920222435A60FE
:100510005A68920B92035A600023B64A48711370CE
:10052000B54A1360B34B1878431E9841C0B217B058
:10053000F0BD10220B7A1342F4D0B04D0A72EE795E
:10054000AF7932023A4312B201926A469288AB887E
:1005500000926A7A287A1202104300B282B20392A1
:10056000EA7AAD7A12021543A54A15804025A54ABC
:100570004D7193422AD049D881246400A34200D10E
:10058000A3E117D8822B00D17FE108D8802B00D1BE
:100590006FE1812B00D172E120238B71C2E78022B1
:1005A00052009342F8D00222FF329342F4D1FFF777
:1005B0007DFFB7E7C024A400A342EDD00DD8A2224E
:1005C000FF32934202D0904A9342E5D100210822A3
:1005D00004A801F0E8F908216EE18C4CA342E6D0B2
:1005E0008B4CA342D8D1009B002BD5D10F3382B2C4
:1005F0001A40531E062BCFD80832774B5201D2181F
:10060000030600D45FE120235371D0E7814A93426F
:10061000CDD000D982E0804A934210D8013A93426B
:1006200000D395E0813AFF3A9342B5D1FFF73EFF00
:100630008023019A5B421343DBB2A37272E78822E4
:100640006C481201934200D111E180329342A3D150
:100650006B461B7930260370FFF728FF03239C4667
:1006600062463E33FF33E254C0225D4B5D49586C15
:1006700092050840104358644620FF3025546748CF
:1006800067461864902040002654586B8026084026
:100690001043586392204000265461481863B020EC
:1006A00040002554586F08405867B2204000265437
:1006B0003C302754FC3884469C44604667460068BA
:1006C000084010433860A620FF3025541800554FCD
:1006D000A0300760C0203027400027541F00943707
:1006E0003868084010433860C22040002654180083
:1006F0004D4F90300760E0204427400027540430DD
:10070000255426541C00C4342068D43308401043B8
:100710002060186801400A431A6003E7434A934285
:1007200000D144E705D8424A934200D13FE7414A0D
:100730003BE7414A934200D139E7404A934200D116
:10074000F8E03F4A934200D026E708213D4806E002
:100750008023009A5B009A4204D112213A48FFF7A5
:1007600097FEDFE68023009A9B009A4202D1822105
:100770003648F4E7032E2AD1032F00D90CE748228C
:10078000002104A801F00FF904AB5E70002F0AD11C
:10079000042304AA1370092204A98A70CB7004AB45
:1007A00019781800DBE72A4BBF00FC58200001F045
:1007B00002F9013004AB4000187000235A1CE35CBE
:1007C000002BECD0510004A843541300F6E70F2E81
:1007D00042D105211F48C2E700500041FF500041AF
:1007E000AC070020FFFFFF8F6C070020B00800203F
:1007F000FF3F00F0DD0000205807002068070020C0
:10080000DE000020A1030000A1020000010300009F
:1008100002030000210900008106000038090020C1
:10082000F4080020040A0020C00900202120000054
:10083000210A0000210B000021220000A1FE00007F
:10084000A121000098000020C41900000800002029
:10085000141A000000000020212E02D1092138487E
:100860007DE7222E00D097E62121364877E7012147
:1008700075E76A46128904AB1A80022191E70023CA
:10088000022104AA1380100069E76A46128904ABAA
:100890001A800F2382B21A40072A00D97CE6083258
:1008A00041335201184209D0274BD21893799B0645
:1008B0000221DB0F04AA138004A850E7224BD218B0
:1008C0009379DB06F4E710239EE6009B002B00D013
:1008D00062E60F3382B21A40531E062B00D95BE644
:1008E0005201030613D51949174BD318521820216A
:1008F000D079084200D15AE65171127A2A4200D1C9
:1009000055E64022FF331A723E3A5A714FE61020E4
:100910000E490D4BD3185218D179014200D146E649
:100920005071117A2022114200D140E6FF331A7231
:100930001F3AEAE7002304AA13800121A3E7C04677
:100940008C000020D819000000500041FF500041E9
:1009500010B5FFF741FC0022034B1A700223034A33
:1009600011780B43137010BDDD00002000500041D2
:1009700010B50C000122FFF785FD200010BD10B559
:100980000C000122FFF77EFD200010BD70B50400B1
:100990000D00FFF793FD03000020834204D00222E4
:1009A00029002000FFF70EFD70BD70B505000C009A
:1009B000FFF784FD002807D0002302222100280031
:1009C000FFF705FD200070BD0400FBE730B5030014
:1009D00020251C1AA24200DC30BD0C78002C03D06C
:1009E00001311C700133F4E71D70FBE7F8B580227C
:1009F0000C00050092000021200000F0D4FF002D23
:100A00000CD13E224E49200000F0C4FFFF235522A6
:100A10005B00E2544B4B9218E254F8BD402D33D8A2
:100A20006B1E1F2B00D9203B002B0AD110225242F3
:100A300022800F326280A280E28005322281424A07
:100A40006281F0261B025A1C581C404D404F92B246
:100A5000FF30FF36191FA94204D81100BB4200D154
:100A60003C4921803C495918B14206D83B498C4643
:100A70001100634500D1374921800132013392B220
:100A800002348342E6D1C8E7442D24D8412DC4D195
:100A90002B490B222B312000FFF798FF304E2823E3
:100AA0003500E37210357036B542B6D029002B7888
:100AB000203423776B7810396377AB780B22A377D8
:100AC000EB782000E377AB881835A3761B0AE37632
:100AD000FFF77CFFE8E72A00453A012A0BD81823E4
:100AE0005A431F4B9B18DD68280000F064FF290063
:100AF0000200200016E02B00144A473B934214D812
:100B0000184A19482260194A19026260FE225200EE
:100B1000A050636180232000DB00FC3AA361E16008
:100B20002261203000F036FF77E7114BE918114BB6
:100B30004902994200D970E780229200D9E7C04665
:100B4000241A0000FF01000004040000FF0300005D
:100B500003040000FFFF0000FCFBFFFFF3050000A3
:100B6000CC1A00005546320A306FB10A57515D9ECB
:100B7000C9FBFFFFFFFF0300F8B517001E000A685E
:100B80004D4B0C009A4275D14C4B4A689A4271D138
:100B9000FE2252004A4B8A589A426BD18B68DB077F
:100BA00011D4802322695B009A420CD1E068C3B261
:100BB000002B08D1434B444AC318934203D8210069
:100BC000203100F0DBF8002E4DD0A369002B4AD075
:100BD00031683E4A8B4206D0934201D8002901D0A9
:100BE00001235B4233606369934264D80721012289
:100BF00019408A40DB08F318197AD2B2114204D1A5
:100C00000A431A72736801337360726833689A42D8
:100C100051D3002F4FD12E4B1B681E332D4A13602A
:100C200049E0FF2B47D9106015682B4B451B103549
:100C30006D029D423FD82100280000F09FF8611C02
:100C4000681CFF31FF3000F099F834E0002B32DBF4
:100C500001235B4213601E4B1E4A1B6896331360D0
:100C600000230B6027E0002F25D1194B1B682D3383
:100C7000FF33D3E719491A4B0A689A421BD9194A1C
:100C800013684428E2D9002BCEDA230021000F3369
:100C90002B311D78002D0ED101338B42F9D1124B2F
:100CA000E51829780139C9B2FD29BAD9013B9BB2AF
:100CB000013D002BF5D1F8BD5546320A57515D9ED6
:100CC000306FB10A00E0FFFFFFDF030063040000A4
:100CD000340B0020380B0020FFFF030058070020D2
:100CE0007F320200A0000020FF010000074B1A0025
:100CF000197DC907FCD52021FF311983044940081B
:100D0000D8611980137DDB07FCD570470040004196
:100D100002A5FFFF002330B59A4200D130BD9C00F0
:100D20000D5901330551F7E7F0B58025104B114EF1
:100D30005C68114FAC435C60002A00D1F0BD140028
:100D4000102A00D91024121B1E801D7DED07FCD532
:100D5000A400A44600240D59055104346445FAD179
:100D6000001909191F801C7DE407FCD5E4E7C04683
:100D70000040004144A5FFFF04A5FFFF802270B59D
:100D8000002304000D005200E958E058814203D1CD
:100D900004339342F8D170BD2000FFF7A7FF402233
:100DA00029002000FFF7C0FFF5E7F8B5030047333F
:100DB00004001A78402103000020FFF793FA00286E
:100DC00001D10020F8BD0023257923706BB2002BE0
:100DD000F7DB3F272000A61DF38F2F404830C018B7
:100DE000611D3A0000F0D6FD3F23F08F9D43C019EE
:100DF00080B2002D01D1F087E3E70023F387E1E71C
:100E0000F0B50C001F00060093B001923F25AC42E4
:100E100003DC2500002F00D140373B0002AA2B4302
:100E2000137002AB31002A00581C00F0B3FD6B4672
:100E300040211A7902A80123FFF7DAFA7619641B18
:100E4000E4D113B0F0BD030010B547331A78043174
:100E500048300023FFF7D4FF10BD0000F7B50400B1
:100E6000FFF7A3FF00283FD0230048339A88A06CE7
:100E70001A80002201385A80082862D800F080FDCC
:100E8000150521252328453C35002F4E300000F064
:100E900092FD0500200031004C302A0000F07AFD60
:100EA00029002000FFF7CFFF1EE00123E364FF339A
:100EB00023658023DB006365A0235B00A36510210D
:100EC000EFE700F0AFFC0021EBE700F0DFFCFAE712
:100ED00020000021FFF7B7FF206D1C4B984203D97B
:100EE00021005431FFF74AFFF7BD2100626D5831F0
:100EF000206DFFF70FFFE6E72000656D216D4C3098
:100F00002A00FFF707FFA900CBE727000026636D43
:100F1000256D00934C37009BB34201DC5900C0E7BC
:100F200000216B1CFF330193287800F02BFC019B00
:100F300001350100AB42F7D13880013602371D0080
:100F4000E9E701225A80BEE72C1B0000FF1F0000CA
:100F500004480622030010B547331A70FFF77EFFDE
:100F600010BDC046E0000020024A53785BB2002B5F
:100F7000FBDB7047000C004010230249CA681A428C
:100F8000FCD07047000800401E21F8B50226254A13
:100F9000254C5368254D8B4333435360A660FFF7C0
:100FA000E3FF234B6360FFF7DFFFAE84FFF7E4FF4F
:100FB000204B1B689B0E3F2B00D1203B00260227B5
:100FC0001D4A9B0213431D4AEA62AB62AE84FFF7DF
:100FD000D3FF1B4BAB84FFF7CFFFAB8C3B43AB8402
:100FE000FFF7CAFF3F226388934380221F43678035
:100FF0006388D20113436380A660FFF7B5FF114BEE
:101000006360FFF7B1FFC0210F4A104B10485360D7
:10101000036A09061B021B0A0B430362072396603F
:101020001360F8BD00400041000C00400008004083
:101030000600010024608000FF01000080BB0A1C44
:10104000240500000007030010E000E0E7030000B3
:1010500000ED00E010B500F02DFC10BD10B5054C02
:1010600012220021200000F09EFCF0232370E63BBA
:10107000E37110BDA304002070B5130006000C003E
:10108000150000200A000121FFF72CF900239842E7
:1010900006D02B0022001F213000FFF723F9012387
:1010A000180070BD10B504220D210248FFF7EAF9BF
:1010B00010BDC046A500002010B50B480B49427971
:1010C000037912021A4383791B041A43C3791B065E
:1010D00013431A0A0B714A711A0C1B0E8A71CB71D9
:1010E000FFF7E0FF10BDC04684040020A5000020EB
:1010F00070B504220D00FFF7C5F9164C85420FD0DC
:10110000FFF7ACFF012304222373134B9A700022D4
:10111000DA701A715A719A711A735A73FFF7CCFF09
:10112000FFF79CFF00232373637A217A1B020B4392
:10113000A17A09040B43E17A09061943491B0B0AFA
:10114000217263720B0C090EA372E172FFF7B4FFF8
:1011500070BDC046A5000020A304002070B5194C46
:10116000002105001422200000F01DFC1649002D6E
:1011700021D022000823C87D08323F26497C314017
:101180001C2901D0B14207D11C21117012395170B4
:101190000C330539D170DBB2191C834200D9011C14
:1011A000C9B2002D0BD0023B9BB21B022380200052
:1011B000FFF79EFF70BDC87C221D0423DDE7013BC5
:1011C0002370F4E76804002084040020F7B52B4B5B
:1011D00001AA597C0700D170997C00249170D97CB8
:1011E0005170197D11706A46961C9A7D7270DB7D74
:1011F000337033889C4207D3FFF730FF0022204B27
:101200001A73FFF759FFF7BDFFF758F90028FAD016
:101210001C4D002F20D0019B2900E018FFF7E6FBB2
:101220008021042289002800FFF72CF9144A013498
:10123000517A137A09021943937A1B041943D37A1A
:101240001B060B4310495B18190A13725172190CD3
:101250001B0E9172D372CCE780213B00280005223F
:101260008900FFF7B4F8019B3A00E0182900074B0A
:10127000FFF782FC00F064FBD8E7C046840400203E
:10128000A50000206802002000FEFFFFB804002037
:10129000F0B587B0FFF75CFE484F0022052138000B
:1012A000FFF7EAFE002858D07B7A3A7A1B021A43ED
:1012B000BB7A434D1B041343FA7A002612061A43E5
:1012C0006B4601921B792B72130A6B72130CAB7273
:1012D000130EEB72FC7B1E2C1BD01ED8122C3ED0A2
:1012E00013D8B44250D0032C2ED0FFF7B7FE012301
:1012F00005222B73334B20219A7000221973DA7068
:101300001A715A719A715A7341E01A2C36D01B2CFB
:10131000EBD1FFF7A3FE2E7339E0282C3AD00BD87F
:10132000232C3BD0252CE0D1802327489B0243600F
:10133000264B082103600EE02F2CEAD05A2C21D036
:101340002A2CD2D1300026E0FB7C191C122B00D9AC
:1013500012211C48C9B2FFF7CBFE07B0F0BD1C4CF0
:101360001C49200018220830FFF730FBFB7C191CB9
:10137000242B00D92421C9B22000ECE73000FFF76C
:10138000EDFEEAE70120FAE7FFF768FE2C73FFF7AE
:1013900093FEE2E70120FFF719FFDEE70C240E4978
:1013A000220003A800F0F6FA019BA34203D92C7295
:1013B0006E72AE72EE720C2103A8CCE7840400209A
:1013C000A5000020A30400207C04002000001F3F93
:1013D000B4000020021A0000861B000080B500AF98
:1013E00072B6BFF35F8F0022064B1A70EFF30883CB
:1013F000054A1360036883F3088843681847BD46AD
:1014000080BDC046A4000020280B002007B50100C5
:101410000122684600F0E8F908216846FFF7A8FABB
:1014200007BD000000227A23F0B58D4985B08D4CB0
:1014300000AF22600B70FA607B60FFF729FF8A4DD6
:1014400040212800FFF7A2FA884B18603B7B2B5401
:10145000002804D000F074FA854BFA681A60854BB6
:10146000FA681D60844B1A608348804B02681B68D1
:101470009C469A42E1D27F4D29680B78FF2B37D0EA
:101480007E4E232B00D0C8E0754B1B78532B34D1F4
:10149000013202606046336801312960821A9A4243
:1014A00000D91A00764D20682A6000F073FA72485D
:1014B000296803686F4ACB18013B036010684B1E14
:1014C000C31813606D4B6F4D1B682970C9B29942E8
:1014D00003D2591A2068FFF768FAC046604B3A7980
:1014E0001A70664BFA681A60624A13680133136017
:1014F000614A136801331360B6E7522B04D1316897
:101500002068FFF73CFAE9E74F2B03D133682268E4
:101510001370E3E7482B03D1336822681380DDE7BB
:10152000572B0AD1584B22689A4202D1574800F0F3
:1015300025FA236832681A60D0E76F2B04D10121A5
:101540002068FFF715FAC9E7682B05D10221236847
:101550001B8833603000F4E7772B04D12368042123
:101560001B683360F6E7472B12D13068FFF736FF70
:10157000474B1B6883F308880121464B1970BFF362
:101580005F8F62B6444B45481B78002BA6D0D8E746
:10159000542BA3D04E2BA1D0562B02D12A21404848
:1015A000CFE7582B0CD135683E4B9D4202D9032121
:1015B0003D48C6E728000135FFF798FBFF35F3E704
:1015C000592B0ED13268394B002A04D122681A6097
:1015D00003213748B5E7920819682068FFF7A4FB94
:1015E000F6E75A2B00D079E7336800262568EB1818
:1015F000BB60BB689D4209D101212E48FFF7B8F9B5
:101600003000FFF703FF03212B489AE728783100C9
:1016100000F0B8F801350600EBE71A00303AD1B215
:10162000092904D833681B01134333605CE71A00AF
:10163000413A052A03D83268373B1201F4E71A0011
:10164000613A052A03D83268573B1201ECE72C2B8C
:1016500003D133682360FB68E7E7014A1370FAE7B8
:10166000D80A0020240B0020E00A0020D00A002025
:1016700058070020D40A0020DC0A00202C0B002090
:10168000300B0020CC0A00200CED00E00A000A001C
:10169000280B0020A400002050050020BC1B0000E7
:1016A000921B0000FFFF0300BE1B0000540500203A
:1016B000C21B0000C61B0000C81B000082B0EFF375
:1016C00005833F221340103B5BB20193019BFEE771
:1016D000FEE700002048214970B5884204D000236D
:1016E0001F4CCA18A24230D300211E4B1E4A9342FF
:1016F0002FD3FF211D4B1E4A8B43936002220C25E2
:10170000082430261B4B1C485A62C378FC398B4393
:101710001343C370C378AB432343C370174B987B09
:10172000B0430600202030439873987BA8430443BD
:101730009C73987B884302439A738023104A5168B4
:101740000B435360FEF7B6FCFEE7C5580433156043
:10175000C7E702C3CBE7C046CC1B00000000002057
:10176000DC000020DC0000203C0B0020000000001A
:1017700000ED00E0FC7000410050004100480041D5
:10178000004000410022F0B5114E7388934216D1FB
:101790000824D3019BB21DB2AC4667465D00ABB2D4
:1017A000002F02DA0B4B5D40ABB2013CA4B2002C1F
:1017B000F1D1B352802302329B009A42E8D10B0A46
:1017C00058404000305A0902484080B2F0BDC0463F
:1017D000580500202110000001230002984200D883
:1017E0007047C0460133F9E7F0B506001C2500201C
:1017F0000F270C00EC403C40002A05D1002C03D1FF
:10180000002D01D0002809D0431C9C46331820002D
:101810003030092C00DD073018706046043D2B1D68
:10182000E7D1F0BD054A064B1A60BFF34F8F054A5A
:10183000054BDA60BFF34F8FFEE7C046EF6926F035
:10184000FC7F00200400FA0500ED00E00B4A10B513
:101850001368002B0ED10A4911600A490A68013247
:101860000A6009490868002806D0824204D30B6048
:10187000FFF7D8FF013B136010BDC046640700208E
:10188000DC050000340B0020380B0020054A064B15
:101890001A60BFF34F8F054A054BDA60BFF34F8FD5
:1018A000FEE7C046EF6916F0FC7F00200400FA0551
:1018B00000ED00E01B4A10B513681B4901331360AB
:1018C0001A4A1368013313600A68002A0CD01848BA
:1018D0001018834203D18024164824058461934262
:1018E00001D100230B6010BDDBB2134A002B11D1D4
:1018F0008021104B090599611378104918000A38A6
:10190000C0B2F02802D908784042087009785B1804
:101910001370E8E712789A42E5D18022054B120550
:101920005A61E0E758070020600700205C070020AC
:1019300018FCFFFF00440041D9000020D80000201F
:10194000074B084A1B681168994207D2FA21C9005F
:101950005B1813608022044B12055A617047C04621
:101960005C07002060070020004400418022024BF9
:1019700012059A609A617047004400417047000068
:1019800002B4714649084900095C49008E4402BC12
:101990007047C046002310B59A4200D110BDCC5C00
:1019A000C4540133F8E703008218934200D1704712
:1019B00019700133F9E70023C25C0133002AFBD11F
:1019C000581E704712010002EF020140D80466EF72
:1019D00001420102030100000697FF0901A1011560
:1019E0000026FF0075089540090181029540090114
:1019F000910295010901B102C073656E7365426F72
:101A0000780073656E7365426F78204D43550034DE
:101A10003234320000000000F9190000021A000000
:101A20000F1A0000EB3C90554632205546322000FC
:101A3000020101000240003E1FF8200001000100E9
:101A40000000000000000000000029420042005396
:101A5000454E5345424F5800000046415431362010
:101A600020203C21646F63747970652068746D6C0C
:101A70003E0A3C68746D6C3E3C626F64793E3C7318
:101A800063726970743E0A6C6F636174696F6E2E65
:101A90007265706C6163652822687474703A2F2FC8
:101AA0007777772E73656E7365626F782E64652223
:101AB000293B0A3C2F7363726970743E3C2F626F3E
:101AC00064793E3C2F68746D6C3E0A00494E464F67
:101AD0005F554632545854002C1B0000590000003A
:101AE00002000000494E44455820202048544D0033
:101AF000621A0000690000000300000043555252C2
:101B0000454E5420554632000000000000000800F9
:101B10000400000043555252454E542042494E00A5
:101B20000000000000E003000404000055463220DD
:101B3000426F6F746C6F616465722076312E32363D
:101B40002E302053464852420D0A4D6F64656C3A60
:101B50002073656E7365426F78204D43550D0A42C0
:101B60006F6172642D49443A2053414D44323147EC
:101B70003138412D53656E7365426F782D4D435555
:101B80002D76300D0A000000000800001F40020002
:101B9000020076312E31205B41726475696E6F3AB6
:101BA00058595A5D204D617920203120323031382A
:101BB0002031353A34353A31380A0D000600580ADA
:101BC0000D00590A0D005A00230A0D00050F0500EB
:101BD0000000000009028200040100800A080B00D6
:101BE00002020201000904000001020201000524B2
:101BF0000010010424020605240600010524010347
:101C000001070583030800FF09040100020A000020
:101C1000000705810240000007050202400000099C
:101C20000402000208065000070584024000000775
:101C3000050502400000090403000203000000093A
:101C40002100010001222100070586034000010751
:101C50000506034000010000090403000203000020
:101C60000300000000C2010000000800FFFFFFFFAA
:101C70000155534253000000000000000000000026
:101C800000800202200000000000000000000000B0
:101C90000000000000000000000000000000000044
:081CA000312E303001C80000B4
:101FF0000000000000000000000000002C1B00009A
:1020000000800020B54000009F4000009F4000007D
:1020100000000000000000000000000000000000C0
:102020000000000000000000000000009F400000D1
:1020300000000000000000009F4000000941000077
:102040009F4000009F4000009F4000009F40000014
:102050009F4000009F4000009F400000A140000002
:102060009F4000009F4000009F4000009F400000F4
:102070001522000025220000352200009F400000AC
:102080009F4000009F4000009F4000009F400000D4
:10209000000000009F4000009F4000009F400000A3
:1020A0009F4000009F4000009F4000009F400000B4
:1020B0000000000010B5064C2378002B07D1054B1B
:1020C000002B02D0044800E000BF0123237010BDA4
:1020D0009000002000000000544F0000044B10B599
:1020E000002B03D00349044800E000BF10BDC046E8
:1020F0000000000094000020544F000010B5054C73
:102100000549200001F077FF044A0549200002F04C
:10211000E1FA10BDAC000020524F0000000000208A
:10212000593F0000962110B5074C8901200000F0AE
:1021300039FA200000F086FB0028FAD096210348E7
:10214000890101F09FFB10BDBC070020C0000020EA
:10215000F0B585B0284C200000F026FB274D002864
:1021600021D001F0DFFF264F2100386001A801F0E7
:10217000DFFE244E01A9300001F063FF01A801F049
:10218000EBFE3100280001F071FE0A2239682000C0
:1021900001F09AFE1C49200001F056FE310020009B
:1021A00001F04BFED6E7280001F074FB00281DD09B
:1021B00001F0B8FF154F2900386001A801F0B8FE02
:1021C000104E01A9300001F03CFF01A801F0C4FE4F
:1021D0000A223968200001F077FE0D49200001F045
:1021E00033FE3100200001F028FEDCE70A2001F078
:1021F000CFFF05B0F0BDC046BC070020C0000020E6
:10220000BC000020AC000020EC4A0000B800002018
:10221000F44A000010B5024801F0A7FC10BDC0460A
:10222000C000002010B5024801F09FFC10BDC04660
:102230000403002010B5024801F097FC10BDC04611
:1022400048050020F7B51C491C4800F053F81C490C
:102250001C4800F04FF81C491C4800F04BF81C4F7C
:102260001C49380000F046F81B4E1C49300000F0B5
:1022700041F81B4D1B49280000F03CF801240023C5
:102280003900019300940A330B22174801F0E6FB52
:1022900000233100019300940C330D22134801F008
:1022A000DDFB032329000093019416331A22104802
:1022B00001F0D4FBF7BDC046000800428C070020A7
:1022C000000C004294070020001000429C070020F0
:1022D000A407002000140042AC07002000180042B0
:1022E000B4070020001C0042C000002004030020AE
:1022F0004805002000230371016070479446F0B543
:102300009E1E721E96416246056892072F68360629
:102310003A4332432A60072505AC24780068A401BB
:102320002940214342680024022B00D05C03114362
:1023300021434160F0BD30B5C0250368AD031C6882
:1023400012052A402243C0240904A402214011435B
:10235000196003685A6814435C6030BD0123026849
:1023600011680B43136003681A68D207FCD4DA695A
:10237000D207F9D470470223026811680B43136037
:102380000268D3699B07FCD470470268137E9B07E1
:1023900002D40379002BF9D1002303717047002286
:1023A00003685A8370470368187E4007C00F704760
:1023B0000368187EC0097047802302685B42117E63
:1023C0000B43137670470368588B8007C00F704724
:1023D00002230268518B0B43538370470368187EB6
:1023E000C007C00F70470368188DC0B270470368FC
:1023F0001A7ED207FCD589B2198501230371180012
:102400007047012203689A757047012203681A75A4
:10241000704700000368214A30B593422FD0204A0C
:1024200093422FD01F4A93422FD01F4A93422FD05E
:102430001E4A93422FD01E4A93421FD10E231922C7
:102440000121032599401B48C024016099082B40B5
:10245000AB40FC359D4089000918A4000859A843E9
:10246000C0259D402B0003430B518023DB011A4301
:10247000114B5A805A7852B2002AFBDB30BD092337
:102480001422DDE70A231522DAE70B231622D7E709
:102490000C231722D4E70D231822D1E700080042AD
:1024A000000C0042001000420014004200180042DC
:1024B000001C004200E100E0000C0040F8B5040000
:1024C0000F0016001D00FFF7A5FF2000FFF746FFD5
:1024D0001C21BB000B4071072268090C0B431360E1
:1024E000842322689375012F1AD11021012E00D068
:1024F00008390C4B69431868C00002F0FDF8072248
:10250000216802408B895203DB04DB0C13438B816F
:10251000226803049089DB0C400B40031843908130
:10252000F8BDC0460C0000200020704770B50F2693
:10253000CB1D013902003240D5B22C0000093034E5
:10254000092A00DD07341C70013B8B42F2D170BDBB
:1025500010B50C000B4B1868FFF7E8FF21000A4B81
:1025600008311868FFF7E2FF2100084B10311868A6
:10257000FFF7DCFF2100064B18311868FFF7D6FF84
:10258000202010BD0CA0800040A0800044A080004E
:1025900048A0800008B4024B9C46103808BC604735
:1025A00051250000704770473F20704713B56B46B8
:1025B0000268D9710733546819000122A04716BD7B
:1025C00070B50A260B7892B06E44023305000B708A
:1025D0003C220021300002F06AF9394801AC069033
:1025E000384824210790062020776846364AA1748F
:1025F0002281364A364BA281FD3AFF3A8018C177D4
:10260000684623390630C17768460730C17702A88B
:10261000C1770720F277032608316944C87703A9F8
:10262000CE7710212B366E443170092621851F315B
:1026300069440E700CA9053E0E70332123800223DD
:1026400069440B7006360DA90E7022493536A186F5
:102650003B216E44307010A86274E27702703D3204
:1026600069446A440B70137040210022E3702371A7
:102670006371A37341336B44218719705A702B7DAA
:10268000C039A370A37263770133DBB2A3776A7D8D
:102690000B200D0068441543C57731206844037052
:1026A0003A23501C6B441870412302320A436B4496
:1026B0001A7021004222084800F004FD12B070BDDB
:1026C0001001042402060524090400000102000090
:1026D000080B0000070500002008002008B4024B8A
:1026E0009C46103808BC6047C1250000F8B5027D43
:1026F0000B7904000D0000279A420CD10B784E781C
:10270000A12B0AD1212E06D10100072234311C4809
:1027100000F0D8FC01373800F8BD212BFBD1202E6A
:1027200023D1010007223431154800F00DFC962317
:10273000626BDB009A421FD13B342378DB071BD44A
:10274000FA2001F079FF00210D4800F0C3FD0127B8
:10275000232EE0D1EB78AA781B021343094A00210B
:102760000748136000F0B6FDD5E7222EEFD1030035
:102770008A783B331A70DAE701F068FFE3E7C04676
:10278000200800200400002008B4024B9C461038AA
:1027900008BC6047ED26000010B534300822002147
:1027A00002F085F810BD000010B5417D006A0131CE
:1027B00000F002FB034B1B6801335A1E93411818AB
:1027C00010BDC0460800002010B5417D006A0231EE
:1027D00000F008FB10BD10B5417D006A023100F029
:1027E000CFFA10BD70B50D00417D04001300023119
:1027F0002A00006A00F0BCFB002801D101236360BD
:1028000070BD000010B5054C23685A1C04D1036844
:102810005B69984703002060180010BD0800002085
:10282000074A0300106810B5411C03D001235B4226
:10283000136010BD597D186A013100F049FBF8E7BB
:102840000800002070B5050001F06CFCF423FF3394
:102850000024984207D93B352C780A20631E9C41FE
:10286000E4B201F095FC200070BD00207047704775
:1028700070470000FA239B0010B58360114B0022C3
:10288000C3820300283383610F4B04004260C2619E
:102890001800503323610830631D21622060DA770D
:1028A0000A4A2F3303CA03C38323A362813BE36233
:1028B0008033236301F086FA2100103101F053FACE
:1028C000200010BD03020000684E0000604E0000B2
:1028D000022110B5094B1A68437D5B01D318FF3301
:1028E0009C7A21439972437D0133DBB25B01D3189B
:1028F0000122FF33997A0A439A7210BDD80C002046
:1029000010B502490248FFF7B5FF10BD20080020AE
:10291000BC070020704710B5040001F083FC2000C4
:1029200010BD0000F0B5822919D1C3B2294D5A015A
:10293000AA189169284C80010C40C02189052143C7
:1029400091612649083340187021506128685B0165
:102950001A5C8A43110030220A431A54F0BD002940
:10296000FCD1C026C1B21B4C4B01E3189A681A4D2A
:10297000B6052A4032439A60194A800182185A608B
:102980000A000727246808325201115DB9430F007D
:102990000121394311559F6910493D4040182E438C
:1029A0009E6158617020115D814308001021014330
:1029B000115599680B48A21808408021490301432A
:1029C00099609968890B89039960402311790B43B9
:1029D0001371C3E7D80C0020FFFFFF8F4C080020C5
:1029E0000C0A0020FF3F00F0EFF310830360012387
:1029F000436072B670470368002B02D162B6BFF322
:102A00006F8F704773B5836D0400002B1BD10600D8
:102A1000A83635786846FFF7E7FF019BEDB2013B2A
:102A200002D33578EDB2FAE768460193FFF7E3FF8A
:102A3000002D01D1002076BD2300A4331868A034F6
:102A40002368C01AF7E76846FFF7CEFF220000258B
:102A5000019BF432013B02D31578EDB2FAE76846E8
:102A60000193FFF7C8FF002DE4D02300F03318686E
:102A7000EC34E5E710B5436D4468DBB25A01A218A7
:102A80009168094808330840802149030143916057
:102A900091685B01890B890391602268D3184022F9
:102AA00019790A431A7110BDFF3F00F0F7B5436D65
:102AB0004268DBB21900040008311068490141186E
:102AC000C979C90711D55B01D21893689B049B0C87
:102AD0000CD12000FFF7CEFF63681A68636DDBB28C
:102AE00008335B01D3187F22DA71F7BDE16D00294D
:102AF00023D12100A4310B6023000125AC33E5650F
:102B000068465360FFF770FF260020002100019BFC
:102B1000A836013BF430F5315A1C33D035700278B9
:102B20005F1ED2B20A700A78002A04D120000193F5
:102B3000FFF7A0FFE8E73B00EEE72100F0310B6074
:102B40000023E3652300603353606846FFF74CFFC2
:102B50000125260020002100019BF436013BA8300E
:102B6000F5315A1C0ED0357002785F1ED2B20A7051
:102B70000A78002A04D120000193FFF77BFFE8E7E1
:102B80003B00EEE768460193FFF735FFA4E737B552
:102B90006B46DC1D00230D00237001F013F92100AA
:102BA00001F09EF82B681818286020783EBD0000C0
:102BB0000078002810D00121084B1B681A898A432D
:102BC0001A810822198B0A431A830422198B0A439B
:102BD0001A830022024B1A607047C046D80C0020AE
:102BE000D00C002010B50F4A93699B0B9B03936197
:102BF00013680222FF331A729879823A02439A715B
:102C00001A7A9207FCD57F24074A2140937A08005C
:102C1000A3431900802301439172917A5B420B43D5
:102C2000937210BDD80C00200050004110B50C006C
:102C300001F0C8F8210001F086F8002804D1034A09
:102C400093699B0B9B03936110BDC046D80C002079
:102C5000F8B50D00832A19D1CBB23B4C5A01A2180A
:102C600091693A48AD010840C0218905014391614D
:102C7000374920686D187021083355615B011A5C73
:102C80008A43110040220A431A54F8BD022A55D142
:102C9000304A8B009858002802D003685B69984737
:102CA000F82001F0BBFA0400274E2B4B466003606E
:102CB00040220021083001F0FAFD22000023A0325A
:102CC000A3646565E3642365A365E3655360D3642A
:102CD0001372136013654C3213725372FF222B0070
:102CE0001340590171188868184F08330740C020F5
:102CF000800538438860306807265B01195CAD00A9
:102D0000B1430E000321314319542300616D606803
:102D100011404901411860334B60616D63680A409E
:102D20001B6852019B180122FF33997A20000A4345
:102D30009A72FFF79FFE074B5C51A6E7110028002F
:102D4000FFF7F0FDA1E7C046D80C0020FFFFFF8F82
:102D50004C08002024080020D04E000070B505006B
:102D60000124064BA200D258002A06D021002800D8
:102D70000134FFF76DFF0A2CF3D170BDF807002076
:102D80000B4BCAB20B488901C9185301C3185961CA
:102D900099690832890B89039961036852019A186D
:102DA0000223D3715179823B0B4353717047C04664
:102DB0004C080020D80C0020084B8A00D05810B5D1
:102DC000002803D003689B68984710BDC9B2044B24
:102DD0004901591888688004800CF6E7240800200F
:102DE000D80C002010B50C00FFF7E6FF00280CD02F
:102DF000064BE4B21B68083464011C198023627915
:102E00005B42134363710223E37110BDD80C0020B1
:102E1000F0B51C002A4B85B01B6807000D0002921C
:102E2000002B4AD0274B8A00D058002808D00368CE
:102E300022005B68029998470400200005B0F0BDAD
:102E40003800FFF7B9FF844204D929003800FFF7A2
:102E5000B3FF04000121EBB21B4E03935B0101930E
:102E6000F21893689B0B9B039360019A3368029856
:102E70009B18FF335A7A0A435A72144BA901C91896
:102E8000220001F00BFD002CD7D029003800FFF7FD
:102E900093FF0028D1D14021039B326808335B01A6
:102EA000D3181879014319710121D971019BD318E5
:102EB000FF339A7A0A439A72BFE701246442BCE75F
:102EC000D00C002024080020D80C00200C0A002080
:102ED00013B56B46DC1D22000123FFF799FF012883
:102EE00001D1207816BD01204042FBE770B5CBB27E
:102EF000124A13485C0189018918021951609168CE
:102F0000104D08330D40802149032943402591602D
:102F10009168890B8903916001685A018A181679B2
:102F20003543157195796D06FCD55B01C918CB79D0
:102F3000DB07FCD500198068C0B270BD0C0A002008
:102F4000D80C0020FF3F00F070B50D0000211400E8
:102F5000FFF7CCFFA04200D9200000230349A34281
:102F600003D0CA5CEA540133F9E770BD0C0A0020B3
:102F7000F0B51E003A4B85B01B680F000192002B84
:102F800035D08023DB019E4231D80025354B8A01A4
:102F9000D3180293002E2CD0334B1B680393FF23CE
:102FA0003B401C0000930834039B64011C19A37967
:102FB000DB0921D02D4B2E49186801F09DFB2D4BCC
:102FC0001721584301F098FB2B4BE279920713D459
:102FD000DA5D002A01D10138F7D20122DA55009BCF
:102FE0005A01214B9B189A69920B92039A61012511
:102FF0006D42280005B0F0BD00221F4B3400DA55A9
:103000003F2E09D9009B40245A01174B9B18802260
:10301000996912060A439A6122000199029801F007
:103020003DFC009BA1045A010F4B890C9B18029A8E
:103030002D195A619A69361B920B92030A439A61C1
:10304000009B039A08335B01D3180222DA71597985
:10305000823A0A435A71019B1B1901939AE7C046B1
:10306000D00C00204C080020D80C00200C000020C0
:1030700040420F00701101004108002070B50D00A2
:103080001C000D4BAE01F61811003000220001F0BB
:1030900005FCEDB209496D014D196E61AB69084A35
:1030A00020001340AB61AB69A2049B0B920C9B0305
:1030B0001343AB6170BDC0464C080020D80C002003
:1030C000FF3F00F0F7B5104B01901B780F00150083
:1030D000002B0CD10D4B16001C78002C09D00C4E87
:1030E0000C4834882018641901F0D8FB348028007B
:1030F000FEBD002EFBD03A19330000210198FFF7E6
:10310000BDFF2418361AF4E7CC0B0020CD0C0020AC
:10311000CE0C0020CD0B0020F8B50F0016000024C7
:10312000012A26D9100001F0A5FB0500380001F0A6
:103130008BFC032302220130400028706B70964202
:103140000DD9397800290AD0531CDBB20137A954B4
:103150009E4203D00232EC54D2B2F0E73200290092
:103160000548FFF7AFFF441EA041C4B2280001F09C
:103170008BFB2000F8BDC04620080020F0B50024DD
:10318000012685B0184B0F0069461E70050000949B
:10319000FFF7FDFC154B01A90B806A3BFF3BCB7190
:1031A0005A330B72009B8C7109334B800E4B4E715E
:1031B00008711C703A00092F0FD00D4F09223E7084
:1031C0000C4E280000943480FFF77CFF69462800ED
:1031D000FFF7DDFC328808493C702800FFF772FFDA
:1031E000012005B0F0BDC046CC0B00200902000054
:1031F000CD0C0020CE0C0020CD0B002070B5CE7879
:1032000092B005000C00022E0BD18B79C9792C48A5
:1032100009021943FFF7B2FF411E8841C0B212B044
:1032200070BD00F0CFFD210000F06EFD002803D03E
:10323000C117081AC00FF2E7012E0ED1E279A37967
:1032400012021A431F49112A13D8D2B2002A10D0F1
:103250002800FFF737FF0120E1E7032EDFD1A37835
:10326000002B08D1E279A37912021A431649032AE6
:10327000EBD90A78ECE7022B08D1E279A3791202A4
:1032800012491A432800FFF747FFC8E7012B05D171
:10329000E279A37912021A430D49F3E7032BBED159
:1032A0004122010001A801F002FB00F08BFD01A901
:1032B00000F03AFDE279A37912021A4301A9E1E78D
:1032C00020080020074F0000FA4E0000EC4E0000DE
:1032D000FE4E0000CBB204495B01C9188B699B0B01
:1032E0009B038B617047C046D80C002037B50500A2
:1032F00048780C000B2810D801F0F4F9061B0F2BAE
:103300000F404561494C5A5D097801AA002906D150
:10331000022311802800FFF7B1FE01203EBD0023EB
:103320001380284B1B78012B00D11370022300213E
:10333000F0E78A780023012A03D101AA1380224BE7
:10334000F0E7204A1370214A93699B0B9B0393611A
:10335000E3E78C78012C06D100211B4B01AA1C70DD
:1033600011702300D6E70120002CD7D1154B174A46
:10337000187093699B0B9B039361CFE789782800B2
:10338000FFF730FCC9E72800FFF738FFC6E7012345
:103390000F4ACCE70B780020DB06BFD12800FFF7EF
:1033A000DDFCA2780A4B0B481A60FFF791FACAE7D6
:1033B0000123094ABBE78A78074B1A60C3E700205C
:1033C000ACE7C0464008002048080020D80C002088
:1033D000D00C0020BC070020D40C00203A4BF7B5DD
:1033E0001E780500002E5FD1384C23689A8B120797
:1033F0000DD5082231009A833000FFF793FA10228E
:103400002368FF33997A0A439A72314B1E6023680E
:103410009A8B520701D504229A83FF331A7A9206B7
:1034200003D52022597A0A435A721A7AD20623D532
:1034300069460800274AC0CAC0C0A268920B92031E
:10344000A2604022587902435A7160230A7828000A
:103450001A422AD1FFF74AFF2368FF33002827D0FA
:103460008022997952420A439A711A7A520603D5F8
:103470004022597A0A435A727F2601252368FF3376
:103480001E722F00236808377F01DB19DB79002BC0
:1034900007D0114BAA00D05800280DD003681B6834
:1034A00098470135082DECD1F7BDFFF7BFFBD3E7F7
:1034B00020210A4A9171D8E729000948FFF7D8F975
:1034C0002368DF19FE71ECE7CD0C0020D80C00203A
:1034D000D00C00200C0A002024080020FF500041DE
:1034E000BC07002010B50248FFF778FF10BDC046AA
:1034F0002008002080235B00038000234360073303
:103500000372704783000148C0187047F807002015
:10351000836C402B09D03F22036CC154036C0133F0
:1035200013400364836C013383647047F7B505006F
:103530006846FFF759FA00264022019B013B02D35F
:103540002E6D961BFAE768460193FFF754FAAB6DB0
:103550006846002B4FD1FFF747FA2900019BA8319D
:10356000013B5A1C0CD00C785A1EE4B2002C05D139
:1035700068460193FFF73FFA2000FEBD1300F0E715
:10358000684601930024FFF736FA2A002900A0328A
:103590001368A431B4420ED0086898420BD92800B1
:1035A000591CEB181160603319780830C9B2FFF765
:1035B000AFFF0134E9E709689942DDD100231360C8
:1035C0000133AB656846FFF70FFA2F002A00002190
:1035D000019BA837013BF532581CC9D039701078CF
:1035E0005E1E002805D0117028000193FFF742FAF3
:1035F000EBE73300F0E7FFF7F7F92900019BF4311F
:10360000013B5A1C06D00C785A1EE4B2002CAFD0F5
:103610001300F6E7684601930024FFF7ECF92A004F
:103620002900EC321368F031B44202D008689842A5
:103630001DD8096899429FD1002368461360AB6585
:10364000FFF7D2F92F002A000021019BF437013B3C
:10365000F532581C00D18BE7397010785E1E0028B7
:1036600011D0117028000193FFF704FAEAE728004F
:10367000591CEB181160AC3319780830C9B2FFF748
:1036800047FF0134CBE73300E3E710B50400FFF751
:103690004DFF206D10BD10B50400FFF747FF236DEF
:1036A000002B03D0E36CE418207A10BD01204042C7
:1036B000FBE7F7B517000E000400FFF737FF684679
:1036C000FFF792F93F2200259446019B013B5A1CCB
:1036D00019D0BD4215D2226D002A12D00121226DCF
:1036E0004942002A0AD06046E26CA218117AE26CC4
:1036F00001320240E264226D013A226571550135C2
:10370000E7E7013BE3E768460193FFF774F9280018
:10371000FEBD0000014B024A1A607047D80C002021
:10372000005000412023F7B5474A0500D1690F201A
:103730000B43D361012245490B7813430B70444B73
:1037400019788143197006211C7821431970414969
:103750000C7822430A701A7802401A706022197895
:103760000A431A703C4B3D4A5A805F78FF09FCD1EE
:103770003B4800F0D1FC01233A4C3B4E226830001C
:1037800011780B43137080223900520001F08FF83A
:1037900022689378DB07FCD456621F26334B1B68E4
:1037A000590B980C9B01314030405B0FB14200D166
:1037B00005211F2800D10238072B00D1043B3140DE
:1037C0008901178D01912A4930400F4001993943F1
:1037D0001185118D0700B143080038431085118D04
:1037E0001803244B7F260B4003430C20138508232A
:1037F000D17881430B430321D3702268D3788B4364
:1038000001390B43D37022681378334013700423BB
:1038100022681678334313702268C1241389A400E8
:1038200083431548138103591B021B0A035180234C
:103830000360137811481943012311702B70002184
:10384000FEF7B0FEF7BDC0460004004058440041FA
:103850003C44004159440041000C00400640000037
:10386000E5340000D80C0020DC0C0020246080002F
:103870003FF8FFFFFF8FFFFF00E100E0BC070020E3
:103880000120704710B50368014A1B6A984710BDB4
:1038900013040000FC30006A704787239B00C018A7
:1038A000C36880204000C01A70470300FC331A6AC6
:1038B000002A03D0DB69C018007D70470120404218
:1038C000FBE710B504000069FEF748FD2200002365
:1038D000FC329361D361136287229200A418636063
:1038E000A360E36010BD872310B59B00C218D368A6
:1038F000002BFCD10069FEF748FD10BDF02001400F
:103900003039484248417047F0231B011940802359
:1039100006209B0099420AD00133FF3301309942BF
:1039200005D0802302385B00994200D00020704708
:103930000F2001400020012903D00239481E814197
:10394000481C70478B23F0B5182685B002919B0068
:103950000400C05C330008214343324D1700EB18CC
:10396000595600F009FE304B0821E05C3300434318
:10397000EB18595600F000FE2C4BE25C0393022A30
:1039800009D11133E05CFF2805D008214643AE1968
:10399000715600F0F1FD8C26B600A05DFF2819D00D
:1039A000012100F09DFD1822A35D21495A43AB5629
:1039B000AD18DB0158188D21890060501D49012286
:1039C0005B188E218900635069688A408F218900C5
:1039D00062501A600122029B11002069FEF76EFD01
:1039E00039002000FFF790FF390005002000FFF7A5
:1039F0009FFF390006002000FFF780FF3300009092
:103A0000290020690122FEF779FC0B4B2069E25C5A
:103A1000039BE15CFEF78FFC2069FEF7ACFC05B070
:103A2000F0BDC046004B00002D0200002F02000038
:103A300018440041144400412E020000802210B5B9
:103A400004005200002100F032FF23000022FC336A
:103A50005A6020009A60DA6010BD0000F7B51D00C2
:103A600008AB1B780400009309AB1B781600019388
:103A700000234360FA239B008360114B0F0008333F
:103A800003601430FFF7DAFF20002130FF30FFF72A
:103A9000D5FF8B236A469B002761E654094B1278B9
:103AA000E554094B2000E2546A46084B1279E2546F
:103AB0008C22313BFF3B9200A3541032A354FEBD35
:103AC0001C4F00002D0200002E0200002F020000FB
:103AD000F7B5EFF3108300930123019372B68026AC
:103AE0000200FF25019BFC327600013B5C1C0FD0DD
:103AF000D4685F1EB44209D054680155546801343B
:103B00002C405460D4680134D460EEE73B00EDE70C
:103B100068460193FEF76FFFF7BD13B5EFF310830F
:103B200000930123019372B6019B5A1E0192002B50
:103B300015D00300FC33DA68002A0DD09A68845C43
:103B40009A680132D2B29A60DA68013ADA6068465D
:103B5000FEF751FF200016BD01246442F7E701245F
:103B60006846FEF748FF6442F4E710B504000069B8
:103B7000FEF729FC002805D02069FEF734FC2069F7
:103B8000FEF726FC2069FEF70EFC00281BD02069FA
:103B9000FEF729FC010020001430FFF799FF8C2369
:103BA0009B00E35CFF2B0ED02300FC331A6A8023BA
:103BB0005B009B1A092B06DC8D238F229B00920051
:103BC000E358A2581A602069FEF708FC00280ED0BE
:103BD00087239B00E318DB68002B14D020002130E2
:103BE000FF30FFF79AFFC1B22069FEF700FC2069A1
:103BF000FEF7DEFB002805D02069FEF7DDFB20691B
:103C0000FEF7CDFB10BD2069FEF7FFFBEFE70000DC
:103C1000F8B5040000690D00FEF7E0FB87239B0068
:103C2000E618002802D0F368002B34D00127802248
:103C3000F3685200934223D1EFF310833B4210D13B
:103C4000174B5B68DB05DB0DF1D0103B5BB2002B43
:103C500010DAF13A1340083B9B08124A9B009B186C
:103C60001B682069FEF7BAFB0028E0D02000FFF7B0
:103C70007CFFDCE79B08C0330B4A9B009B58F0E7B6
:103C800020002130FF302900FFF722FF2069FEF7D6
:103C9000B8FB0120F8BD29002069FEF7A8FBF8E772
:103CA00000ED00E01CED00E000E100E010B50400D4
:103CB0001430FFF732FF8C239B00E35CFF2B0ED008
:103CC0002300FC331A6A80235B009B1A0A2B06DD53
:103CD0008E238F229B009200E358A2581A6010BDD9
:103CE00070B50E0000254468002C0BD0236831000D
:103CF0005B6820009847002802DB2D18E468F3E792
:103D000001256D42280070BD70B50D004468002C7F
:103D100008D0236829009B6820009847002802D11A
:103D2000E468F4E7200070BD70B50D004468002C15
:103D300007D0236829002000DB689847E4682D1825
:103D4000F5E72C7070BD70B50D004468002C08D0EC
:103D5000236829001B6820009847002802D1E468E6
:103D6000F4E7200070BDF8B542788B790D00017A38
:103D70009B18040000208B4222DC6368834219D127
:103D80006560002623786A71EA792B719B1823708D
:103D9000AB79B34213D9AB68B7006078DF19FFF78E
:103DA000B1FB3B68013603606378F6B201336370A0
:103DB000EEE70B00D9680029FBD1DD60E1E70120C7
:103DC000F8BD000070B50126054D064C2B68334246
:103DD00003D12000FFF78EFB2E60200070BDC0468F
:103DE000DC0D0020E00D0020F7B506000D000C00F2
:103DF0008B180193019B671B9C4207D03368217885
:103E00001B683000984701340028F3D13800FEBD0C
:103E100070B5040008000D0000F016FE23680200D3
:103E200029005B682000984770BD10B50B1E02D0BA
:103E3000FFF7EEFF0300180010BD10B503688A6895
:103E40005B680968984710BD10B5FFF7EEFF10BD1D
:103E500010B503681B68984710BD000010B50249F3
:103E6000FFF7D6FF10BDC046504F000070B50500EB
:103E7000FFF7E3FF04002800FFF7F0FF201870BDF4
:103E8000F0B58BB06B461500002205330600DA77DB
:103E90000800012D00D80A2509AC290000F0B2FC69
:103EA000CAB2130037330700DBB2092902D8130066
:103EB0003033DBB2013C2370002FEED12100300003
:103EC000FFF7B3FF0BB0F0BDF8B506000C00151EF0
:103ED00004D10368C9B21B689847F8BD0A2A0CD1FF
:103EE00000290BDA2D21FFF7B3FF614207002A00FA
:103EF0003000FFF7C5FF3818EFE7D2B221003000DD
:103F0000FFF7BEFFE9E710B5040000F00BF9E06031
:103F1000236820005B699847002808DA00F002F95E
:103F2000E368C01AA3689842F2D30120404210BD52
:103F300070B50D000749040000F05DF82800FFF798
:103F4000E2FF002804DBC1B2200000F09FF8F5E793
:103F5000200070BD524F000010B50400006800281A
:103F600001D000F091FC200010BD10B504000068E5
:103F7000002801D000F088FC00232360A360636068
:103F800010BD70B504000D000068013100F040FD67
:103F9000031E01D0012028C470BD036810B50400C1
:103FA000002B04D043688B4201D3012010BD2000B8
:103FB000FFF7E7FF0028F9D0A368002BF5D12268AE
:103FC0001370F3E770B50E00110004001500FFF741
:103FD000E4FF002804D12000FFF7C7FF200070BDD8
:103FE0002A003100A560206800F058FC00232268F8
:103FF000A1685354F2E7002370B504000D0003607C
:1040000043608360994207D0080000F01DFD29003D
:1040100002002000FFF7D6FF200070BD70B505003C
:104020000C0088420CD0006800F02EFC23682B6046
:10403000A368AB6063686B6000232360A360636068
:1040400070BD10B50400FFF7E9FF200010BDF7B503
:10405000040001911600002902D100252800FEBDB0
:104060000125002AFAD08368D7183900FFF795FF99
:10407000051EF2D02368A26801999818320000F05A
:104080000DFC00222368A760DA55E7E707B56B4609
:10409000D971073301221900FFF7D9FF0EBDFEE7E2
:1040A000034B10B51B68002B00D0984710BDC046CD
:1040B000EC0D002070B50F490F4CA14204D100F067
:1040C000B5F800F08BF8FEE70C4D00238D42F6D0DA
:1040D000CA18E818A24205D3094B8242EFD0094919
:1040E000002204E0006804331060F1E704C38B424F
:1040F000FCD3E4E70000002090000020584F0000AF
:1041000090000020040E002010B500F064F8002894
:1041100001D100F055F810BD014B18607047C04642
:10412000EC0D0020014B18687047C046F00D0020D0
:10413000F7B51348012284461249134C8E68636810
:1041400005689B0E1340019288686268019F920E79
:104150003A4067463F6893420ED1BD420CD1864239
:104160000AD35B19FA254868AD00861B07486B43E4
:104170007043000DC018FEBD3D0013000600E3E7CC
:10418000F00D002010E000E000ED00E055550000CB
:1041900070B5041E10D0FFF7CBFF050000F01AF831
:1041A000FFF7C6FF054B401B9842F7D9FA23013CA5
:1041B0009B00ED18002CF3D170BDC046E703000052
:1041C00010B5034A13680133136000F047FA10BDBD
:1041D000F00D0020704700207047704710B500F0C8
:1041E000D5F800F023FBFFF7F8FF0120FFF7D0FF21
:1041F000084C2000FFF796FA2000FEF7D9FCFDF7E7
:1042000091FFFDF7A5FF044B002BFAD000E000BFA3
:10421000F7E7C046200800200000000010B500F0BD
:1042200029FB10BD10B500F02FFB10BD1E2270B58C
:1042300046484749436893431C3A13434360082365
:104240008C6923438B61434C434B9C829C8A14436F
:104250009C82DC681442FCD00124404A147015781A
:10426000254203D055786DB2002DF8DB012494600F
:10427000547864B2002CFBDB394C5460547864B23F
:10428000002CFBDB8224E4015480547864B2002CBF
:10429000FBDB02249C840E34DD682542FCD0314CCB
:1042A000DC621024DD682542FCD09D8C2E4C2C4312
:1042B0009C841024DD682542FCD002249D8C80263D
:1042C0002C439C844024DD683542FCD0DD682542C7
:1042D000F9D01024DD682542FCD000249460547885
:1042E00064B2002CFBDB214C5460547864B2002C87
:1042F000FBDB1C6A1E4D2C4080251C621C6AAC43F3
:104300001C62032393601B4B536053785BB2002BFA
:10431000FBDB0023FF240B72174A4B728B72CB72AC
:10432000164B1A60164B174A1B6811689A065B01F8
:10433000C90E2340520F12020B431343124A138536
:10434000802342681343436070BDC0460040004173
:10435000000400400C06000000080040000C004073
:1043600001050100B905FF7D040A000000070300F4
:10437000FFFCFFFF03060100006CDC020C000020C4
:10438000246080002060800000400042FA21314B10
:1043900010B51868890000F0AFF92F4B013898422A
:1043A00056D82E492E4A4860C020136A00061B02C8
:1043B0001B0A03431362002407238C600B608021D7
:1043C000136A09061B021B0A0B431362FC22254BCE
:1043D000196A0A431A62FC22196A92010A431A6294
:1043E000A022196AD2020A431A62E0B20021013403
:1043F00000F076F8202CF8D11B4B1C005A7852B2F2
:10440000002AFBDB194A5A80194B1A00597EC90948
:104410000129FBD0E421C90099803F21D970537E46
:10442000DB09012BFBD0C02300205B0113619070DE
:1044300000F024F863785BB2002BFBDB0D4B0E4AD7
:104440006380D379DB09012BFBD04123537010BD6E
:10445000FEE7C0460C000020FFFFFF0010E000E078
:1044600000ED00E000040040000C00401E40000091
:10447000004000422140000000480042164A00B5BA
:104480001300517EC9090129FBD00138042816D830
:104490001969124A0A400F211A615A788A4300F0BA
:1044A00021F90308060B0300110001220A435A7088
:1044B00000BD11000322F9E711000222F6E7F02304
:1044C00011691B050B430F21136153788B431900AE
:1044D00002230B435370EBE700400042FFFFFFF065
:1044E000182330B51D00040045430820204A551903
:1044F0002856013014D0032912D808006343D1563E
:10450000D31800F0EFF802280E1B5868CB010221E7
:10451000184A9B181A1840321170012282405A60C2
:1045200030BD5868CB010621124A9B181A18403238
:104530001170012282405A609A61F1E75868CB01FC
:1045400006210C4A9B181A18403211700122824031
:104550005A605A61E4E75868CB010221054A9B186A
:104560001A1840321170012282409A60D8E7C04682
:10457000004B00000044004118224243F8B52C4E85
:104580000300B218127A52B2140001320ED0481C45
:1045900000240C280AD800F0A5F8072020202020AD
:1045A0002020200B0B0B0B00012464422000F8BDDF
:1045B000092905D10021D8B2FFF792FF0024F5E7C1
:1045C0000A2902D1D8B20839F6E700240B29EDD127
:1045D000D8B20A39FFF784FFE8E718204343F218FE
:1045E0005568F3562C00134ADB016E0817389B18E8
:1045F000C9B204409E19002C0DD00F2430363278F9
:10460000090122401143C9B25B19317040331A7855
:1046100010431870D2E732000F27303216785B193A
:10462000BE433143117040331A7810431870BDE710
:10463000004B00000044004110B50400FEF717F9DC
:10464000014B1C6010BDC046100000200122024B2F
:1046500052421A607047C04610000020164A10B53A
:104660001368591C26D0013B1360002B22D172B66F
:10467000124B134A0433934213D9124A01211000FA
:10468000147D0C42FCD02021148BFF319B085B0071
:1046900021431183D3610C4B13800123027D1A4205
:1046A000FCD0BFF34F8F094B094ADA60BFF34F8F3D
:1046B000C046FDE710BDC0461000002000200000ED
:1046C000030200000040004102A5FFFF00ED00E0F2
:1046D0000400FA050B0010B50100180000F098F86E
:1046E00010BD000002B4714649084900095C490048
:1046F0008E4402BC7047C046002243088B4274D3EC
:1047000003098B425FD3030A8B4244D3030B8B42D2
:1047100028D3030C8B420DD3FF22090212BA030CDB
:104720008B4202D31212090265D0030B8B4219D3BC
:1047300000E0090AC30B8B4201D3CB03C01A5241DC
:10474000830B8B4201D38B03C01A5241430B8B4224
:1047500001D34B03C01A5241030B8B4201D30B030D
:10476000C01A5241C30A8B4201D3CB02C01A524134
:10477000830A8B4201D38B02C01A5241430A8B42F7
:1047800001D34B02C01A5241030A8B4201D30B02E0
:10479000C01A5241CDD2C3098B4201D3CB01C01AFA
:1047A000524183098B4201D38B01C01A5241430904
:1047B0008B4201D34B01C01A524103098B4201D3F2
:1047C0000B01C01A5241C3088B4201D3CB00C01A5F
:1047D000524183088B4201D38B00C01A52414308D7
:1047E0008B4201D34B00C01A5241411A00D20146FC
:1047F000524110467047FFE701B5002000F006F86F
:1048000002BDC0460029F7D076E770477047C04622
:1048100010B5040004481300002804D00A00022048
:10482000210000E000BF10BD0000000070B50026B0
:104830000C4D0D4C641BA410A64209D1002600F0BB
:1048400049F90A4D0A4C641BA410A64205D170BD5B
:10485000B300EB5898470136EEE7B300EB589847A2
:104860000136F2E778000020780000207800002070
:104870008C00002010B5034B0100186800F06AF8A6
:1048800010BDC0461400002010B5034B010018688D
:1048900000F016F810BDC04614000020002310B52B
:1048A0009A4200D110BDCC5CC4540133F8E7030038
:1048B0001218934200D1704719700133F9E70000D4
:1048C00070B50500002910D00C1F2368002B00DAFA
:1048D000E418280000F0BFF81D4A1368002B05D12A
:1048E00063601460280000F0B7F870BDA34209D9D6
:1048F000216860188342F3D118685B684118216011
:10490000EEE713005A68002A01D0A242F9D91968CB
:104910005818A0420BD12068091858181960824213
:10492000E0D110685268411819605A60DAE7A04275
:1049300002D90C232B60D5E721686018824203D18D
:10494000106852684118216062605C60CAE7C04626
:10495000F40D0020032370B5CD1C9D4308350600DF
:104960000C2D1ED20C25A9421DD8300000F073F882
:10497000254A14682100002919D1244C2368002BF2
:1049800003D1300000F04EF820602900300000F024
:1049900049F8431C2BD10C233000336000F05CF845
:1049A00003E0002DDFDA0C233360002070BD0B68BC
:1049B0005B1B19D40B2B03D90B60CC18256003E0CB
:1049C0004B688C420DD11360300000F045F8200098
:1049D00007220B30231D9043C31AE7D05A42E250FE
:1049E000E4E763600C00EFE70C004968C3E70323CA
:1049F000C41C9C43A042E1D0211A300000F012F800
:104A0000431CDBD1C7E7C046F40D0020F80D0020A1
:104A100010B5034B0A000100186800F01EF810BD25
:104A200014000020002370B5064C05000800236028
:104A300000F042F8431C03D12368002B00D02B6008
:104A400070BDC046000E00200023C25C0133002A66
:104A5000FBD1581E704770477047F8B507000D002E
:104A60001600002905D11100FFF774FF0400200093
:104A7000F8BD002A03D1FFF723FF3400F7E700F069
:104A800012F82C00B042F2D231003800FFF762FF7A
:104A9000041EECD029003200FFF700FF2900380087
:104AA000FFF70EFFE3E70B1F1B68181F002B01DA4F
:104AB0000B58C01870470000044A1368002B00D13F
:104AC000034B1818106018007047C046FC0D0020FA
:104AD000040E0020F8B5C046F8BC08BC9E467047DE
:104AE000F8B5C046F8BC08BC9E4670472073656E9A
:104AF000643A20002072656369657665643A200037
:104B00000000000014000000080000000400000085
:104B1000FF00FFFFFFFF0400000000000400000092
:104B2000010000001C000000040000000000FF0065
:104B30000000000005000000010000001C00000053
:104B4000050001000100FF00000000000600000059
:104B5000010000001C00000006000001000106002A
:104B60000000000007000000010000001C00000021
:104B70000700010100010700000000000300000021
:104B800001000000040000000100FFFFFFFF030020
:104B9000000000000200000001000000060000000C
:104BA0000000FFFFFFFF0200000000001B000000EC
:104BB0000800000004000000FF00FFFFFFFFFF00EF
:104BC000000000001C0000000800000004000000BD
:104BD000FF00FFFFFFFFFF000100000002000000D8
:104BE0000800000004000000FF00FFFFFFFFFF00BF
:104BF0000000000016000000020000000400000099
:104C0000FF00FFFFFFFFFF00000000001700000093
:104C10000200000004000000FF00FFFFFFFFFF0094
:104C20000100000008000000030000000400000074
:104C3000FF00FFFFFFFFFF00010000000900000070
:104C40000300000004000000FF00FFFFFFFFFF0063
:104C5000010000000B00000008000000040000003C
:104C6000FF00FFFFFFFFFF00000000000800000042
:104C70000200000004000000FF00FFFFFFFFFF0034
:104C80000000000009000000020000000400000015
:104C9000FF00FFFFFFFFFF00000000000C0000000E
:104CA0000200000004000000FF00FFFFFFFFFF0004
:104CB000000000000D0000000200000004000000E1
:104CC000FF00FFFFFFFFFF000000000010000000DA
:104CD0000200000004000000FF00FFFFFFFFFF00D4
:104CE00000000000110000000200000004000000AD
:104CF000FF00FFFFFFFFFF000000000013000000A7
:104D00000200000004000000FF00FFFFFFFFFF00A3
:104D10000100000003000000080000000400000083
:104D2000FF00FFFFFFFFFF00000000001200000077
:104D30000800000004000000FF00FFFFFFFFFF006D
:104D40000000000015000000080000000400000042
:104D5000FF00FFFFFFFF050001000000170000003B
:104D60000300000004000000FF00FFFFFFFFFF0042
:104D70000100000016000000030000000400000015
:104D8000FF00FFFFFFFFFF00010000000A0000001E
:104D90000800000004000000FF00FFFFFFFFFF000D
:104DA000000000000E0000000800000004000000E9
:104DB000FF00FFFFFFFFFF00000000000F000000EA
:104DC0000800000004000000FF00FFFFFFFF0F00CD
:104DD000000000000A0000000800000004000000BD
:104DE000FF00FFFFFFFFFF00000000000B000000BE
:104DF0000800000004000000FF00FFFFFFFFFF00AD
:104E00000000000018000000060000000000000084
:104E1000FF00FFFFFFFFFF0000000000190000007F
:104E20000600000000000000FF00FFFFFFFFFF0082
:104E3000000000000000000008000000000000006A
:104E4000FF00FFFFFFFFFF00000000000100000067
:104E50000800000000000000FF00FFFFFFFFFF0050
:104E600000C2010000000800000000000000000077
:104E7000AD250000E5270000A9250000C927000096
:104E8000A92700002128000005280000A525000012
:104E9000A72500009927000045280000D72700001B
:104EA000C125000029250000ED2600005125000045
:104EB000F0FFFFFF0000000089270000DD26000052
:104EC0006B28000095250000000000000000000095
:104ED000AD2A0000B33600008B3600009736000084
:104EE0001529000017290000052A000073656E735C
:104EF00065426F78204D4355000004030904736533
:104F00006E7365426F780012010002EF020140D813
:104F10000467EF000101020301000000000000002F
:104F200000000000113C0000E93D00009B3800003B
:104F3000E738000095380000AD3C0000AB380000B9
:104F40008538000045390000C33800008138000072
:104F50000D0A00000000000000000000FFFFFFFF3E
:104F6000FFFFFFFF40420F00FFFFFFFF1800002080
:104F70000000000000000000000000000000000031
:104F80000000000000000000000000000000000021
:104F90000000000000000000000000000000000011
:104FA0000000000000000000000000000000000001
:104FB00000000000000000000000000000000000F1
:104FC00000000000000000000000000000000000E1
:104FD000DD200000FD200000452200000129000026
:084FE00015370000B5200000A8
:00000001FF
